{
  "contractName": "Auction",
  "abi": [
    {
      "constant": true,
      "inputs": [],
      "name": "beneficiary",
      "outputs": [
        {
          "name": "beneficiaryName",
          "type": "string"
        },
        {
          "name": "beneficiaryImage",
          "type": "string"
        },
        {
          "name": "beneficiaryContactLink",
          "type": "string"
        }
      ],
      "payable": false,
      "stateMutability": "view",
      "type": "function"
    },
    {
      "constant": true,
      "inputs": [],
      "name": "highestBidder",
      "outputs": [
        {
          "name": "",
          "type": "address"
        }
      ],
      "payable": false,
      "stateMutability": "view",
      "type": "function"
    },
    {
      "constant": true,
      "inputs": [],
      "name": "auctionItem",
      "outputs": [
        {
          "name": "catalog",
          "type": "string"
        },
        {
          "name": "itemName",
          "type": "string"
        },
        {
          "name": "itemImage",
          "type": "string"
        }
      ],
      "payable": false,
      "stateMutability": "view",
      "type": "function"
    },
    {
      "constant": true,
      "inputs": [],
      "name": "highestBid",
      "outputs": [
        {
          "name": "",
          "type": "uint256"
        }
      ],
      "payable": false,
      "stateMutability": "view",
      "type": "function"
    },
    {
      "constant": true,
      "inputs": [],
      "name": "auctioner",
      "outputs": [
        {
          "name": "auctionerName",
          "type": "string"
        },
        {
          "name": "auactionerDescription",
          "type": "string"
        },
        {
          "name": "auctionerImage",
          "type": "string"
        }
      ],
      "payable": false,
      "stateMutability": "view",
      "type": "function"
    },
    {
      "inputs": [],
      "payable": false,
      "stateMutability": "nonpayable",
      "type": "constructor"
    },
    {
      "anonymous": false,
      "inputs": [
        {
          "indexed": false,
          "name": "_highestBid",
          "type": "uint256"
        },
        {
          "indexed": false,
          "name": "_highestBidder",
          "type": "address"
        }
      ],
      "name": "highestBidSubmitted",
      "type": "event"
    },
    {
      "constant": false,
      "inputs": [],
      "name": "bid",
      "outputs": [],
      "payable": true,
      "stateMutability": "payable",
      "type": "function"
    }
  ],
  "bytecode": "0x60806040526000600a553480156200001657600080fd5b506060604051908101604052806040805190810160405280601c81526020017f4368656966204d696e697374657227732052656c6965662046756e64000000008152508152602001608060405190810160405280605481526020017f68747470733a2f2f63646e2e646f776e746f65617274682e6f72672e696e2f6c81526020017f6962726172792f6c617267652f323031382d30382d32332f302e34323731363081526020017f30305f313533353031333835305f32332e6a70670000000000000000000000008152508152602001606060405190810160405280602581526020017f68747470733a2f2f646f6e6174696f6e2e636d6472662e6b6572616c612e676f81526020017f762e696e2f00000000000000000000000000000000000000000000000000000081525081525060066000820151816000019080519060200190620001669291906200048d565b506020820151816001019080519060200190620001859291906200048d565b506040820151816002019080519060200190620001a49291906200048d565b509050506060604051908101604052806040805190810160405280600c81526020017f476c656e6e204a61636f627300000000000000000000000000000000000000008152508152602001608060405190810160405280604281526020017f4d61796f7220404b6e6f7820436f756e74792c54656e6e65737365652e20466f81526020017f726d65722d57574520576f726c64202620546167205465616d204368616d706981526020017f6f6e0000000000000000000000000000000000000000000000000000000000008152508152602001608060405190810160405280604c81526020017f68747470733a2f2f7062732e7477696d672e636f6d2f70726f66696c655f696d81526020017f616765732f3733343130353733303438343136363635362f524f743358574b6e81526020017f5f343030783430302e6a70670000000000000000000000000000000000000000815250815250600360008201518160000190805190602001906200031d9291906200048d565b5060208201518160010190805190602001906200033c9291906200048d565b5060408201518160020190805190602001906200035b9291906200048d565b5090505060606040519081016040528060e06040519081016040528060a881526020016200116960a8913981526020016040805190810160405280600f81526020017f44656d6f6e204b616e65204d61736b00000000000000000000000000000000008152508152602001606060405190810160405280602f81526020017f68747470733a2f2f7062732e7477696d672e636f6d2f6d656469612f4362747381526020017f34797a564941414a72664d2e6a70670000000000000000000000000000000000815250815250600080820151816000019080519060200190620004459291906200048d565b506020820151816001019080519060200190620004649291906200048d565b506040820151816002019080519060200190620004839291906200048d565b509050506200053c565b828054600181600116156101000203166002900490600052602060002090601f016020900481019282601f10620004d057805160ff191683800117855562000501565b8280016001018555821562000501579182015b8281111562000500578251825591602001919060010190620004e3565b5b50905062000510919062000514565b5090565b6200053991905b80821115620005355760008160009055506001016200051b565b5090565b90565b610c1d806200054c6000396000f300608060405260043610610078576000357c0100000000000000000000000000000000000000000000000000000000900463ffffffff1680631998aeef1461007d57806338af3eed1461008757806391f90157146101ef578063c2c042ca14610246578063d57bde79146103ae578063f3fb05df146103d9575b600080fd5b610085610541565b005b34801561009357600080fd5b5061009c610625565b60405180806020018060200180602001848103845287818151815260200191508051906020019080838360005b838110156100e45780820151818401526020810190506100c9565b50505050905090810190601f1680156101115780820380516001836020036101000a031916815260200191505b50848103835286818151815260200191508051906020019080838360005b8381101561014a57808201518184015260208101905061012f565b50505050905090810190601f1680156101775780820380516001836020036101000a031916815260200191505b50848103825285818151815260200191508051906020019080838360005b838110156101b0578082015181840152602081019050610195565b50505050905090810190601f1680156101dd5780820380516001836020036101000a031916815260200191505b50965050505050505060405180910390f35b3480156101fb57600080fd5b50610204610805565b604051808273ffffffffffffffffffffffffffffffffffffffff1673ffffffffffffffffffffffffffffffffffffffff16815260200191505060405180910390f35b34801561025257600080fd5b5061025b61082b565b60405180806020018060200180602001848103845287818151815260200191508051906020019080838360005b838110156102a3578082015181840152602081019050610288565b50505050905090810190601f1680156102d05780820380516001836020036101000a031916815260200191505b50848103835286818151815260200191508051906020019080838360005b838110156103095780820151818401526020810190506102ee565b50505050905090810190601f1680156103365780820380516001836020036101000a031916815260200191505b50848103825285818151815260200191508051906020019080838360005b8381101561036f578082015181840152602081019050610354565b50505050905090810190601f16801561039c5780820380516001836020036101000a031916815260200191505b50965050505050505060405180910390f35b3480156103ba57600080fd5b506103c3610a0b565b6040518082815260200191505060405180910390f35b3480156103e557600080fd5b506103ee610a11565b60405180806020018060200180602001848103845287818151815260200191508051906020019080838360005b8381101561043657808201518184015260208101905061041b565b50505050905090810190601f1680156104635780820380516001836020036101000a031916815260200191505b50848103835286818151815260200191508051906020019080838360005b8381101561049c578082015181840152602081019050610481565b50505050905090810190601f1680156104c95780820380516001836020036101000a031916815260200191505b50848103825285818151815260200191508051906020019080838360005b838110156105025780820151818401526020810190506104e7565b50505050905090810190601f16801561052f5780820380516001836020036101000a031916815260200191505b50965050505050505060405180910390f35b34600a5410156106235734600a8190555033600960006101000a81548173ffffffffffffffffffffffffffffffffffffffff021916908373ffffffffffffffffffffffffffffffffffffffff1602179055507f293b3866ee72979496aed55e50a6903d1c6f4fac22d33dd0f9c27994c81779a0600a54600960009054906101000a900473ffffffffffffffffffffffffffffffffffffffff16604051808381526020018273ffffffffffffffffffffffffffffffffffffffff1673ffffffffffffffffffffffffffffffffffffffff1681526020019250505060405180910390a15b565b6006806000018054600181600116156101000203166002900480601f0160208091040260200160405190810160405280929190818152602001828054600181600116156101000203166002900480156106bf5780601f10610694576101008083540402835291602001916106bf565b820191906000526020600020905b8154815290600101906020018083116106a257829003601f168201915b505050505090806001018054600181600116156101000203166002900480601f01602080910402602001604051908101604052809291908181526020018280546001816001161561010002031660029004801561075d5780601f106107325761010080835404028352916020019161075d565b820191906000526020600020905b81548152906001019060200180831161074057829003601f168201915b505050505090806002018054600181600116156101000203166002900480601f0160208091040260200160405190810160405280929190818152602001828054600181600116156101000203166002900480156107fb5780601f106107d0576101008083540402835291602001916107fb565b820191906000526020600020905b8154815290600101906020018083116107de57829003601f168201915b5050505050905083565b600960009054906101000a900473ffffffffffffffffffffffffffffffffffffffff1681565b6000806000018054600181600116156101000203166002900480601f0160208091040260200160405190810160405280929190818152602001828054600181600116156101000203166002900480156108c55780601f1061089a576101008083540402835291602001916108c5565b820191906000526020600020905b8154815290600101906020018083116108a857829003601f168201915b505050505090806001018054600181600116156101000203166002900480601f0160208091040260200160405190810160405280929190818152602001828054600181600116156101000203166002900480156109635780601f1061093857610100808354040283529160200191610963565b820191906000526020600020905b81548152906001019060200180831161094657829003601f168201915b505050505090806002018054600181600116156101000203166002900480601f016020809104026020016040519081016040528092919081815260200182805460018160011615610100020316600290048015610a015780601f106109d657610100808354040283529160200191610a01565b820191906000526020600020905b8154815290600101906020018083116109e457829003601f168201915b5050505050905083565b600a5481565b6003806000018054600181600116156101000203166002900480601f016020809104026020016040519081016040528092919081815260200182805460018160011615610100020316600290048015610aab5780601f10610a8057610100808354040283529160200191610aab565b820191906000526020600020905b815481529060010190602001808311610a8e57829003601f168201915b505050505090806001018054600181600116156101000203166002900480601f016020809104026020016040519081016040528092919081815260200182805460018160011615610100020316600290048015610b495780601f10610b1e57610100808354040283529160200191610b49565b820191906000526020600020905b815481529060010190602001808311610b2c57829003601f168201915b505050505090806002018054600181600116156101000203166002900480601f016020809104026020016040519081016040528092919081815260200182805460018160011615610100020316600290048015610be75780601f10610bbc57610100808354040283529160200191610be7565b820191906000526020600020905b815481529060010190602001808311610bca57829003601f168201915b50505050509050835600a165627a7a72305820dca4d935ea83ce737cc5ef9f51c4ffdc2208a5ad8d349e0a4286dd988be16deb00295468652069636f6e69632044656d6f6e204b616e65204d61736b2c2074686174206665617475726564206f6e206e756d65726f757320657069736f646573206f66204d6f6e646179206e696768742052415720616e642057726573746c654d616e69612e20576f726e206279204a61636f6273207768656e20686520776173204469726563746f72206f66204f7065726174696f6e73206f7220436f72706f72617465204b616e65",
  "source": "pragma solidity ^0.4.2;\r\n\r\ncontract Auction{\r\n\r\n    struct Auctioner{\r\n        string auctionerName;\r\n        string auactionerDescription;\r\n        string auctionerImage;\r\n    }\r\n\r\n    struct Beneficiary{\r\n        //address beneficiary;\r\n        string beneficiaryName;\r\n        string beneficiaryImage;\r\n        string beneficiaryContactLink;\r\n    }\r\n\r\n    struct Item{\r\n        string catalog;\r\n        string itemName;\r\n        string itemImage;\r\n    }\r\n    \r\n    Item public auctionItem;\r\n    Auctioner public auctioner;\r\n    Beneficiary public beneficiary;\r\n    address public highestBidder;\r\n    uint public highestBid=0;\r\n\r\n    constructor() public {\r\n       \r\n        //Need a better way to do initialize class members\r\n\r\n        //beneficiary=Beneficiary(_beneficiary,_beneficiaryName,_beneficiaryImage,_beneficiaryContactLink);\r\n        beneficiary=Beneficiary(\"Cheif Minister's Relief Fund\",\"https://cdn.downtoearth.org.in/library/large/2018-08-23/0.42716000_1535013850_23.jpg\",\"https://donation.cmdrf.kerala.gov.in/\");\r\n        auctioner=Auctioner(\"Glenn Jacobs\",\"Mayor @Knox County,Tennessee. Former-WWE World & Tag Team Champion\",\"https://pbs.twimg.com/profile_images/734105730484166656/ROt3XWKn_400x400.jpg\");\r\n        auctionItem=Item(\"The iconic Demon Kane Mask, that featured on numerous episodes of Monday night RAW and WrestleMania. Worn by Jacobs when he was Director of Operations or Corporate Kane\",\"Demon Kane Mask\",\"https://pbs.twimg.com/media/Cbts4yzVIAAJrfM.jpg\");\r\n        \r\n    }\r\n\r\n    event highestBidSubmitted(uint _highestBid,address _highestBidder);\r\n\r\n    function bid() payable public{\r\n        if(highestBid<msg.value){\r\n            highestBid=msg.value;\r\n            highestBidder=msg.sender;\r\n            emit highestBidSubmitted(highestBid,highestBidder);\r\n        }\r\n    }\r\n\r\n}",
  "sourcePath": "D:\\auction-starter\\contracts\\Auction.sol",
  "compiler": {
    "name": "solc",
    "version": "0.4.24+commit.e67f0147.Emscripten.clang"
  },
  "schemaVersion": "2.0.1",
  "updatedAt": "2018-09-28T11:35:13.995Z"
}