{
  "contractName": "FundChain",
  "abi": [
    {
      "constant": true,
      "inputs": [],
      "name": "endUser",
      "outputs": [
        {
          "name": "userName",
          "type": "string"
        },
        {
          "name": "userImage",
          "type": "string"
        },
        {
          "name": "userAddress",
          "type": "address"
        },
        {
          "name": "userFunctionMsg",
          "type": "string"
        },
        {
          "name": "fundsRecieved",
          "type": "uint256"
        }
      ],
      "payable": false,
      "stateMutability": "view",
      "type": "function"
    },
    {
      "constant": true,
      "inputs": [],
      "name": "noOfEndUsers",
      "outputs": [
        {
          "name": "",
          "type": "uint256"
        }
      ],
      "payable": false,
      "stateMutability": "view",
      "type": "function"
    },
    {
      "constant": true,
      "inputs": [
        {
          "name": "",
          "type": "uint256"
        }
      ],
      "name": "endUserSupplyChains",
      "outputs": [
        {
          "name": "",
          "type": "string"
        }
      ],
      "payable": false,
      "stateMutability": "view",
      "type": "function"
    },
    {
      "constant": true,
      "inputs": [],
      "name": "endUserUpdateMsg",
      "outputs": [
        {
          "name": "",
          "type": "string"
        }
      ],
      "payable": false,
      "stateMutability": "view",
      "type": "function"
    },
    {
      "constant": true,
      "inputs": [],
      "name": "distributor",
      "outputs": [
        {
          "name": "distributorName",
          "type": "string"
        },
        {
          "name": "distributorImage",
          "type": "string"
        },
        {
          "name": "distributorLink",
          "type": "string"
        },
        {
          "name": "distributorAddress",
          "type": "address"
        },
        {
          "name": "distributorFundRecievedCount",
          "type": "uint256"
        }
      ],
      "payable": false,
      "stateMutability": "view",
      "type": "function"
    },
    {
      "constant": true,
      "inputs": [],
      "name": "agent",
      "outputs": [
        {
          "name": "agentName",
          "type": "string"
        },
        {
          "name": "agentDescription",
          "type": "string"
        },
        {
          "name": "agentImage",
          "type": "string"
        },
        {
          "name": "agentAddress",
          "type": "address"
        },
        {
          "name": "agentDonationCount",
          "type": "uint256"
        }
      ],
      "payable": false,
      "stateMutability": "view",
      "type": "function"
    },
    {
      "inputs": [],
      "payable": false,
      "stateMutability": "nonpayable",
      "type": "constructor"
    },
    {
      "constant": false,
      "inputs": [
        {
          "name": "_distributorName",
          "type": "string"
        },
        {
          "name": "_distributorImage",
          "type": "string"
        },
        {
          "name": "_distributorLink",
          "type": "string"
        },
        {
          "name": "_distributorFundRecievedCount",
          "type": "uint256"
        }
      ],
      "name": "makePaymentToDistributors",
      "outputs": [],
      "payable": true,
      "stateMutability": "payable",
      "type": "function"
    },
    {
      "constant": false,
      "inputs": [
        {
          "name": "_receivedCount",
          "type": "uint256"
        }
      ],
      "name": "makePaymentToEndUsers",
      "outputs": [],
      "payable": true,
      "stateMutability": "payable",
      "type": "function"
    },
    {
      "constant": false,
      "inputs": [
        {
          "name": "_msg",
          "type": "string"
        }
      ],
      "name": "updateEndUserMessage",
      "outputs": [],
      "payable": false,
      "stateMutability": "nonpayable",
      "type": "function"
    }
  ],
  "bytecode": "0x60806040526000600b553480156200001657600080fd5b5060a0604051908101604052806040805190810160405280601381526020017f42726f636b20456477617264204c65736e6172000000000000000000000000008152508152602001606060405190810160405280602581526020017f466f726d65722d55464320616e64205757452d556e6976657273616c2043686181526020017f6d70696f6e0000000000000000000000000000000000000000000000000000008152508152602001608060405190810160405280604f81526020017f68747470733a2f2f7777772e7777652e636f6d2f662f7374796c65732f6f675f81526020017f696d6167652f7075626c69632f72642d74616c656e742f42696f2f42726f636b81526020017f5f4c65736e61725f62696f2e706e670000000000000000000000000000000000815250815260200173287cfb49cebac74dd0b28fa8de3a4d0ecc8d3a7c73ffffffffffffffffffffffffffffffffffffffff1681526020016000815250600160008201518160000190805190602001906200019d92919062000236565b506020820151816001019080519060200190620001bc92919062000236565b506040820151816002019080519060200190620001db92919062000236565b5060608201518160030160006101000a81548173ffffffffffffffffffffffffffffffffffffffff021916908373ffffffffffffffffffffffffffffffffffffffff16021790555060808201518160040155905050620002e5565b828054600181600116156101000203166002900490600052602060002090601f016020900481019282601f106200027957805160ff1916838001178555620002aa565b82800160010185558215620002aa579182015b82811115620002a95782518255916020019190600101906200028c565b5b509050620002b99190620002bd565b5090565b620002e291905b80821115620002de576000816000905550600101620002c4565b5090565b90565b61154980620002f56000396000f300608060405260043610610099576000357c0100000000000000000000000000000000000000000000000000000000900463ffffffff168063028d4e441461009e57806314d1eea41461024057806318e0ea0d1461026b57806341acb81b14610311578063980e812b146103a1578063aa25a4a014610493578063bfe10928146104b3578063c053094314610655578063f5ff5c76146106be575b600080fd5b3480156100aa57600080fd5b506100b3610860565b6040518080602001806020018673ffffffffffffffffffffffffffffffffffffffff1673ffffffffffffffffffffffffffffffffffffffff16815260200180602001858152602001848103845289818151815260200191508051906020019080838360005b83811015610133578082015181840152602081019050610118565b50505050905090810190601f1680156101605780820380516001836020036101000a031916815260200191505b50848103835288818151815260200191508051906020019080838360005b8381101561019957808201518184015260208101905061017e565b50505050905090810190601f1680156101c65780820380516001836020036101000a031916815260200191505b50848103825286818151815260200191508051906020019080838360005b838110156101ff5780820151818401526020810190506101e4565b50505050905090810190601f16801561022c5780820380516001836020036101000a031916815260200191505b509850505050505050505060405180910390f35b34801561024c57600080fd5b50610255610a6c565b6040518082815260200191505060405180910390f35b34801561027757600080fd5b5061029660048036038101908080359060200190929190505050610a72565b6040518080602001828103825283818151815260200191508051906020019080838360005b838110156102d65780820151818401526020810190506102bb565b50505050905090810190601f1680156103035780820380516001836020036101000a031916815260200191505b509250505060405180910390f35b34801561031d57600080fd5b50610326610b22565b6040518080602001828103825283818151815260200191508051906020019080838360005b8381101561036657808201518184015260208101905061034b565b50505050905090810190601f1680156103935780820380516001836020036101000a031916815260200191505b509250505060405180910390f35b610491600480360381019080803590602001908201803590602001908080601f0160208091040260200160405190810160405280939291908181526020018383808284378201915050505050509192919290803590602001908201803590602001908080601f0160208091040260200160405190810160405280939291908181526020018383808284378201915050505050509192919290803590602001908201803590602001908080601f016020809104026020016040519081016040528093929190818152602001838380828437820191505050505050919291929080359060200190929190505050610bc0565b005b6104b160048036038101908080359060200190929190505050610dd8565b005b3480156104bf57600080fd5b506104c8610fc6565b604051808060200180602001806020018673ffffffffffffffffffffffffffffffffffffffff1673ffffffffffffffffffffffffffffffffffffffff168152602001858152602001848103845289818151815260200191508051906020019080838360005b8381101561054857808201518184015260208101905061052d565b50505050905090810190601f1680156105755780820380516001836020036101000a031916815260200191505b50848103835288818151815260200191508051906020019080838360005b838110156105ae578082015181840152602081019050610593565b50505050905090810190601f1680156105db5780820380516001836020036101000a031916815260200191505b50848103825287818151815260200191508051906020019080838360005b838110156106145780820151818401526020810190506105f9565b50505050905090810190601f1680156106415780820380516001836020036101000a031916815260200191505b509850505050505050505060405180910390f35b34801561066157600080fd5b506106bc600480360381019080803590602001908201803590602001908080601f01602080910402602001604051908101604052809392919081815260200183838082843782019150505050505091929192905050506111d2565b005b3480156106ca57600080fd5b506106d36111ec565b604051808060200180602001806020018673ffffffffffffffffffffffffffffffffffffffff1673ffffffffffffffffffffffffffffffffffffffff168152602001858152602001848103845289818151815260200191508051906020019080838360005b83811015610753578082015181840152602081019050610738565b50505050905090810190601f1680156107805780820380516001836020036101000a031916815260200191505b50848103835288818151815260200191508051906020019080838360005b838110156107b957808201518184015260208101905061079e565b50505050905090810190601f1680156107e65780820380516001836020036101000a031916815260200191505b50848103825287818151815260200191508051906020019080838360005b8381101561081f578082015181840152602081019050610804565b50505050905090810190601f16801561084c5780820380516001836020036101000a031916815260200191505b509850505050505050505060405180910390f35b600d806000018054600181600116156101000203166002900480601f0160208091040260200160405190810160405280929190818152602001828054600181600116156101000203166002900480156108fa5780601f106108cf576101008083540402835291602001916108fa565b820191906000526020600020905b8154815290600101906020018083116108dd57829003601f168201915b505050505090806001018054600181600116156101000203166002900480601f0160208091040260200160405190810160405280929190818152602001828054600181600116156101000203166002900480156109985780601f1061096d57610100808354040283529160200191610998565b820191906000526020600020905b81548152906001019060200180831161097b57829003601f168201915b5050505050908060020160009054906101000a900473ffffffffffffffffffffffffffffffffffffffff1690806003018054600181600116156101000203166002900480601f016020809104026020016040519081016040528092919081815260200182805460018160011615610100020316600290048015610a5c5780601f10610a3157610100808354040283529160200191610a5c565b820191906000526020600020905b815481529060010190602001808311610a3f57829003601f168201915b5050505050908060040154905085565b600b5481565b60006020528060005260406000206000915090508054600181600116156101000203166002900480601f016020809104026020016040519081016040528092919081815260200182805460018160011615610100020316600290048015610b1a5780601f10610aef57610100808354040283529160200191610b1a565b820191906000526020600020905b815481529060010190602001808311610afd57829003601f168201915b505050505081565b600c8054600181600116156101000203166002900480601f016020809104026020016040519081016040528092919081815260200182805460018160011615610100020316600290048015610bb85780601f10610b8d57610100808354040283529160200191610bb8565b820191906000526020600020905b815481529060010190602001808311610b9b57829003601f168201915b505050505081565b60a0604051908101604052806040805190810160405280601c81526020017f4368656966204d696e697374657227732052656c6965662046756e64000000008152508152602001608060405190810160405280605481526020017f68747470733a2f2f63646e2e646f776e746f65617274682e6f72672e696e2f6c81526020017f6962726172792f6c617267652f323031382d30382d32332f302e34323731363081526020017f30305f313533353031333835305f32332e6a70670000000000000000000000008152508152602001606060405190810160405280602581526020017f68747470733a2f2f646f6e6174696f6e2e636d6472662e6b6572616c612e676f81526020017f762e696e2f00000000000000000000000000000000000000000000000000000081525081526020017331f9aae8434bb4a09d969871cdd59a5b12e90d5f73ffffffffffffffffffffffffffffffffffffffff1681526020018281525060066000820151816000019080519060200190610d439291906113f8565b506020820151816001019080519060200190610d609291906113f8565b506040820151816002019080519060200190610d7d9291906113f8565b5060608201518160030160006101000a81548173ffffffffffffffffffffffffffffffffffffffff021916908373ffffffffffffffffffffffffffffffffffffffff1602179055506080820151816004015590505050505050565b60a0604051908101604052806040805190810160405280601881526020017f48656c7020696e204e65656420466f6f642052657461696c00000000000000008152508152602001608060405190810160405280605481526020017f68747470733a2f2f63646e2e646f776e746f65617274682e6f72672e696e2f6c81526020017f6962726172792f6c617267652f323031382d30382d32332f302e34323731363081526020017f30305f313533353031333835305f32332e6a7067000000000000000000000000815250815260200173e61582efb7dad1b68494173b509b38f0beaf2d8273ffffffffffffffffffffffffffffffffffffffff1681526020016040805190810160405280600f81526020017f44656661756c74204d6573736167650000000000000000000000000000000000815250815260200182815250600d6000820151816000019080519060200190610f349291906113f8565b506020820151816001019080519060200190610f519291906113f8565b5060408201518160020160006101000a81548173ffffffffffffffffffffffffffffffffffffffff021916908373ffffffffffffffffffffffffffffffffffffffff1602179055506060820151816003019080519060200190610fb59291906113f8565b506080820151816004015590505050565b6006806000018054600181600116156101000203166002900480601f0160208091040260200160405190810160405280929190818152602001828054600181600116156101000203166002900480156110605780601f1061103557610100808354040283529160200191611060565b820191906000526020600020905b81548152906001019060200180831161104357829003601f168201915b505050505090806001018054600181600116156101000203166002900480601f0160208091040260200160405190810160405280929190818152602001828054600181600116156101000203166002900480156110fe5780601f106110d3576101008083540402835291602001916110fe565b820191906000526020600020905b8154815290600101906020018083116110e157829003601f168201915b505050505090806002018054600181600116156101000203166002900480601f01602080910402602001604051908101604052809291908181526020018280546001816001161561010002031660029004801561119c5780601f106111715761010080835404028352916020019161119c565b820191906000526020600020905b81548152906001019060200180831161117f57829003601f168201915b5050505050908060030160009054906101000a900473ffffffffffffffffffffffffffffffffffffffff16908060040154905085565b80600c90805190602001906111e8929190611478565b5050565b6001806000018054600181600116156101000203166002900480601f0160208091040260200160405190810160405280929190818152602001828054600181600116156101000203166002900480156112865780601f1061125b57610100808354040283529160200191611286565b820191906000526020600020905b81548152906001019060200180831161126957829003601f168201915b505050505090806001018054600181600116156101000203166002900480601f0160208091040260200160405190810160405280929190818152602001828054600181600116156101000203166002900480156113245780601f106112f957610100808354040283529160200191611324565b820191906000526020600020905b81548152906001019060200180831161130757829003601f168201915b505050505090806002018054600181600116156101000203166002900480601f0160208091040260200160405190810160405280929190818152602001828054600181600116156101000203166002900480156113c25780601f10611397576101008083540402835291602001916113c2565b820191906000526020600020905b8154815290600101906020018083116113a557829003601f168201915b5050505050908060030160009054906101000a900473ffffffffffffffffffffffffffffffffffffffff16908060040154905085565b828054600181600116156101000203166002900490600052602060002090601f016020900481019282601f1061143957805160ff1916838001178555611467565b82800160010185558215611467579182015b8281111561146657825182559160200191906001019061144b565b5b50905061147491906114f8565b5090565b828054600181600116156101000203166002900490600052602060002090601f016020900481019282601f106114b957805160ff19168380011785556114e7565b828001600101855582156114e7579182015b828111156114e65782518255916020019190600101906114cb565b5b5090506114f491906114f8565b5090565b61151a91905b808211156115165760008160009055506001016114fe565b5090565b905600a165627a7a7230582040e142e5b208ae22a9486e70cabeb018995159bf2c61da84f4aaf30761bb9ba30029",
  "source": "pragma solidity ^0.4.2;\r\n\r\ncontract FundChain{\r\n\r\n    struct PhilantropyAgent{\r\n        string agentName;\r\n        string agentDescription;\r\n        string agentImage;\r\n        address agentAddress;\r\n        uint agentDonationCount;\r\n    }\r\n\r\n    struct NonProfitDistributors{\r\n        //address beneficiary;\r\n        string distributorName;\r\n        string distributorImage;\r\n        string distributorLink;\r\n        address distributorAddress;\r\n        uint distributorFundRecievedCount;\r\n    }\r\n\r\n    struct GrassrootLevelUser{\r\n\r\n        string userName;\r\n        string userImage;\r\n        address userAddress;\r\n        string userFunctionMsg;\r\n        uint fundsRecieved;\r\n    }\r\n    \r\n    mapping(uint=>string) public endUserSupplyChains;\r\n    PhilantropyAgent public agent;\r\n    NonProfitDistributors public distributor;\r\n    uint public noOfEndUsers=0;\r\n    string public endUserUpdateMsg;\r\n    GrassrootLevelUser public endUser;\r\n\r\n    constructor() public {\r\n       \r\n        //Need a better way to do initialize class members\r\n        agent=PhilantropyAgent(\"Brock Edward Lesnar\",\"Former-UFC and WWE-Universal Champion\",\"https://www.wwe.com/f/styles/og_image/public/rd-talent/Bio/Brock_Lesnar_bio.png\",0x287cfb49cebac74dd0b28fa8de3a4d0ecc8d3a7c,0);\r\n        //distributor=NonProfitDistributors(\"Cheif Minister's Relief Fund\",\"https://cdn.downtoearth.org.in/library/large/2018-08-23/0.42716000_1535013850_23.jpg\",\"https://donation.cmdrf.kerala.gov.in/\",0x31f9Aae8434Bb4A09d969871CDd59A5B12E90d5f,0);\r\n    }\r\n\r\n    function makePaymentToDistributors(string _distributorName,string _distributorImage,string _distributorLink,uint _distributorFundRecievedCount) payable public{\r\n        distributor=NonProfitDistributors(\"Cheif Minister's Relief Fund\",\"https://cdn.downtoearth.org.in/library/large/2018-08-23/0.42716000_1535013850_23.jpg\",\"https://donation.cmdrf.kerala.gov.in/\",0x31f9Aae8434Bb4A09d969871CDd59A5B12E90d5f,_distributorFundRecievedCount);\r\n\r\n    } \r\n\r\n    function makePaymentToEndUsers(uint _receivedCount) payable public{\r\n        endUser=GrassrootLevelUser(\"Help in Need Food Retail\",\"https://cdn.downtoearth.org.in/library/large/2018-08-23/0.42716000_1535013850_23.jpg\",0xE61582efb7DaD1b68494173b509b38F0BEaF2D82,\"Default Message\" ,_receivedCount);\r\n        \r\n    } \r\n\r\n    function updateEndUserMessage(string _msg) public{\r\n        endUserUpdateMsg=_msg;\r\n    }\r\n\r\n}",
  "sourcePath": "D:\\auction-starter\\contracts\\FundChain.sol",
  "compiler": {
    "name": "solc",
    "version": "0.4.24+commit.e67f0147.Emscripten.clang"
  },
  "schemaVersion": "2.0.1",
  "updatedAt": "2018-09-28T11:35:13.995Z"
}