{
  "contractName": "Auction",
  "abi": [
    {
      "constant": true,
      "inputs": [],
      "name": "beneficiary",
      "outputs": [
        {
          "name": "beneficiaryName",
          "type": "string"
        },
        {
          "name": "beneficiaryImage",
          "type": "string"
        },
        {
          "name": "beneficiaryContactLink",
          "type": "string"
        }
      ],
      "payable": false,
      "stateMutability": "view",
      "type": "function"
    },
    {
      "constant": true,
      "inputs": [],
      "name": "highestBidder",
      "outputs": [
        {
          "name": "",
          "type": "address"
        }
      ],
      "payable": false,
      "stateMutability": "view",
      "type": "function"
    },
    {
      "constant": true,
      "inputs": [],
      "name": "auctionItem",
      "outputs": [
        {
          "name": "catalog",
          "type": "string"
        },
        {
          "name": "itemName",
          "type": "string"
        },
        {
          "name": "itemImage",
          "type": "string"
        }
      ],
      "payable": false,
      "stateMutability": "view",
      "type": "function"
    },
    {
      "constant": true,
      "inputs": [],
      "name": "highestBid",
      "outputs": [
        {
          "name": "",
          "type": "uint256"
        }
      ],
      "payable": false,
      "stateMutability": "view",
      "type": "function"
    },
    {
      "constant": true,
      "inputs": [],
      "name": "auctioner",
      "outputs": [
        {
          "name": "auctionerName",
          "type": "string"
        },
        {
          "name": "auactionerDescription",
          "type": "string"
        },
        {
          "name": "auctionerImage",
          "type": "string"
        }
      ],
      "payable": false,
      "stateMutability": "view",
      "type": "function"
    },
    {
      "inputs": [],
      "payable": false,
      "stateMutability": "nonpayable",
      "type": "constructor"
    },
    {
      "anonymous": false,
      "inputs": [
        {
          "indexed": false,
          "name": "_highestBid",
          "type": "uint256"
        },
        {
          "indexed": false,
          "name": "_highestBidder",
          "type": "address"
        }
      ],
      "name": "highestBidSubmitted",
      "type": "event"
    },
    {
      "constant": false,
      "inputs": [],
      "name": "bid",
      "outputs": [],
      "payable": true,
      "stateMutability": "payable",
      "type": "function"
    }
  ],
  "bytecode": "0x60806040526000600a553480156200001657600080fd5b506060604051908101604052806040805190810160405280601c81526020017f4368656966204d696e697374657227732052656c6965662046756e64000000008152508152602001608060405190810160405280605481526020017f68747470733a2f2f63646e2e646f776e746f65617274682e6f72672e696e2f6c81526020017f6962726172792f6c617267652f323031382d30382d32332f302e34323731363081526020017f30305f313533353031333835305f32332e6a70670000000000000000000000008152508152602001606060405190810160405280602581526020017f68747470733a2f2f646f6e6174696f6e2e636d6472662e6b6572616c612e676f81526020017f762e696e2f0000000000000000000000000000000000000000000000000000008152508152506006600082015181600001908051906020019062000166929190620004b3565b50602082015181600101908051906020019062000185929190620004b3565b506040820151816002019080519060200190620001a4929190620004b3565b509050506060604051908101604052806040805190810160405280601081526020017f416d697461626820426163686368616e00000000000000000000000000000000815250815260200160a060405190810160405280606781526020017f496e6469616e2066696c6d206163746f722c2066696c6d206469726563746f7281526020017f2c2066696c6d2070726f64756365722c206d7573696320636f6d706f7365722c81526020017f2074656c65766973696f6e20686f737420616e6420666f726d657220706f6c6981526020017f74696369616e2e000000000000000000000000000000000000000000000000008152508152602001606060405190810160405280603481526020017f68747470733a2f2f696d616765732e696e6469616e657870726573732e636f6d81526020017f2f323031382f30332f616d69743735392e6a7067000000000000000000000000815250815250600360008201518160000190805190602001906200031d929190620004b3565b5060208201518160010190805190602001906200033c929190620004b3565b5060408201518160020190805190602001906200035b929190620004b3565b5090505060606040519081016040528060c060405190810160405280608a81526020016200118f608a913981526020016040805190810160405280601381526020017f4b424320536561736f6e2035204a61636b6574000000000000000000000000008152508152602001608060405190810160405280605d81526020017f68747470733a2f2f64323369706364356d69777034712e636c6f756466726f6e81526020017f742e6e65742f77702d636f6e74656e742f75706c6f6164732f323031372f303681526020017f2f416d69746162682d426163686368616e2d4b42432d3030322e6a70670000008152508152506000808201518160000190805190602001906200046b929190620004b3565b5060208201518160010190805190602001906200048a929190620004b3565b506040820151816002019080519060200190620004a9929190620004b3565b5090505062000562565b828054600181600116156101000203166002900490600052602060002090601f016020900481019282601f10620004f657805160ff191683800117855562000527565b8280016001018555821562000527579182015b828111156200052657825182559160200191906001019062000509565b5b5090506200053691906200053a565b5090565b6200055f91905b808211156200055b57600081600090555060010162000541565b5090565b90565b610c1d80620005726000396000f300608060405260043610610078576000357c0100000000000000000000000000000000000000000000000000000000900463ffffffff1680631998aeef1461007d57806338af3eed1461008757806391f90157146101ef578063c2c042ca14610246578063d57bde79146103ae578063f3fb05df146103d9575b600080fd5b610085610541565b005b34801561009357600080fd5b5061009c610625565b60405180806020018060200180602001848103845287818151815260200191508051906020019080838360005b838110156100e45780820151818401526020810190506100c9565b50505050905090810190601f1680156101115780820380516001836020036101000a031916815260200191505b50848103835286818151815260200191508051906020019080838360005b8381101561014a57808201518184015260208101905061012f565b50505050905090810190601f1680156101775780820380516001836020036101000a031916815260200191505b50848103825285818151815260200191508051906020019080838360005b838110156101b0578082015181840152602081019050610195565b50505050905090810190601f1680156101dd5780820380516001836020036101000a031916815260200191505b50965050505050505060405180910390f35b3480156101fb57600080fd5b50610204610805565b604051808273ffffffffffffffffffffffffffffffffffffffff1673ffffffffffffffffffffffffffffffffffffffff16815260200191505060405180910390f35b34801561025257600080fd5b5061025b61082b565b60405180806020018060200180602001848103845287818151815260200191508051906020019080838360005b838110156102a3578082015181840152602081019050610288565b50505050905090810190601f1680156102d05780820380516001836020036101000a031916815260200191505b50848103835286818151815260200191508051906020019080838360005b838110156103095780820151818401526020810190506102ee565b50505050905090810190601f1680156103365780820380516001836020036101000a031916815260200191505b50848103825285818151815260200191508051906020019080838360005b8381101561036f578082015181840152602081019050610354565b50505050905090810190601f16801561039c5780820380516001836020036101000a031916815260200191505b50965050505050505060405180910390f35b3480156103ba57600080fd5b506103c3610a0b565b6040518082815260200191505060405180910390f35b3480156103e557600080fd5b506103ee610a11565b60405180806020018060200180602001848103845287818151815260200191508051906020019080838360005b8381101561043657808201518184015260208101905061041b565b50505050905090810190601f1680156104635780820380516001836020036101000a031916815260200191505b50848103835286818151815260200191508051906020019080838360005b8381101561049c578082015181840152602081019050610481565b50505050905090810190601f1680156104c95780820380516001836020036101000a031916815260200191505b50848103825285818151815260200191508051906020019080838360005b838110156105025780820151818401526020810190506104e7565b50505050905090810190601f16801561052f5780820380516001836020036101000a031916815260200191505b50965050505050505060405180910390f35b34600a5410156106235734600a8190555033600960006101000a81548173ffffffffffffffffffffffffffffffffffffffff021916908373ffffffffffffffffffffffffffffffffffffffff1602179055507f293b3866ee72979496aed55e50a6903d1c6f4fac22d33dd0f9c27994c81779a0600a54600960009054906101000a900473ffffffffffffffffffffffffffffffffffffffff16604051808381526020018273ffffffffffffffffffffffffffffffffffffffff1673ffffffffffffffffffffffffffffffffffffffff1681526020019250505060405180910390a15b565b6006806000018054600181600116156101000203166002900480601f0160208091040260200160405190810160405280929190818152602001828054600181600116156101000203166002900480156106bf5780601f10610694576101008083540402835291602001916106bf565b820191906000526020600020905b8154815290600101906020018083116106a257829003601f168201915b505050505090806001018054600181600116156101000203166002900480601f01602080910402602001604051908101604052809291908181526020018280546001816001161561010002031660029004801561075d5780601f106107325761010080835404028352916020019161075d565b820191906000526020600020905b81548152906001019060200180831161074057829003601f168201915b505050505090806002018054600181600116156101000203166002900480601f0160208091040260200160405190810160405280929190818152602001828054600181600116156101000203166002900480156107fb5780601f106107d0576101008083540402835291602001916107fb565b820191906000526020600020905b8154815290600101906020018083116107de57829003601f168201915b5050505050905083565b600960009054906101000a900473ffffffffffffffffffffffffffffffffffffffff1681565b6000806000018054600181600116156101000203166002900480601f0160208091040260200160405190810160405280929190818152602001828054600181600116156101000203166002900480156108c55780601f1061089a576101008083540402835291602001916108c5565b820191906000526020600020905b8154815290600101906020018083116108a857829003601f168201915b505050505090806001018054600181600116156101000203166002900480601f0160208091040260200160405190810160405280929190818152602001828054600181600116156101000203166002900480156109635780601f1061093857610100808354040283529160200191610963565b820191906000526020600020905b81548152906001019060200180831161094657829003601f168201915b505050505090806002018054600181600116156101000203166002900480601f016020809104026020016040519081016040528092919081815260200182805460018160011615610100020316600290048015610a015780601f106109d657610100808354040283529160200191610a01565b820191906000526020600020905b8154815290600101906020018083116109e457829003601f168201915b5050505050905083565b600a5481565b6003806000018054600181600116156101000203166002900480601f016020809104026020016040519081016040528092919081815260200182805460018160011615610100020316600290048015610aab5780601f10610a8057610100808354040283529160200191610aab565b820191906000526020600020905b815481529060010190602001808311610a8e57829003601f168201915b505050505090806001018054600181600116156101000203166002900480601f016020809104026020016040519081016040528092919081815260200182805460018160011615610100020316600290048015610b495780601f10610b1e57610100808354040283529160200191610b49565b820191906000526020600020905b815481529060010190602001808311610b2c57829003601f168201915b505050505090806002018054600181600116156101000203166002900480601f016020809104026020016040519081016040528092919081815260200182805460018160011615610100020316600290048015610be75780601f10610bbc57610100808354040283529160200191610be7565b820191906000526020600020905b815481529060010190602001808311610bca57829003601f168201915b50505050509050835600a165627a7a72305820b97f8c3298326ce21f201d74205cf050ae39dd38bd0415d36fd27151e1a5267500295468652069636f6e6963207175697a2073686f77204b42432c20746861742068617320416d62697461626820426163686368616e2061732069747320686f73742e2054686973206a61636b65742077617320776f726e20696e20736561736f6e20352c20647572696e672069636f6e6963206d696c6c6f6e616972652077696e6e696e6720726f756e64",
  "source": "pragma solidity ^0.4.2;\r\n\r\ncontract Auction{\r\n\r\n    struct Auctioner{\r\n        string auctionerName;\r\n        string auactionerDescription;\r\n        string auctionerImage;\r\n    }\r\n\r\n    struct Beneficiary{\r\n        //address beneficiary;\r\n        string beneficiaryName;\r\n        string beneficiaryImage;\r\n        string beneficiaryContactLink;\r\n    }\r\n\r\n    struct Item{\r\n        string catalog;\r\n        string itemName;\r\n        string itemImage;\r\n    }\r\n    \r\n    Item public auctionItem;\r\n    Auctioner public auctioner;\r\n    Beneficiary public beneficiary;\r\n    address public highestBidder;\r\n    uint public highestBid=0;\r\n\r\n    constructor() public {\r\n       \r\n        //Need a better way to do initialize class members\r\n\r\n        //beneficiary=Beneficiary(_beneficiary,_beneficiaryName,_beneficiaryImage,_beneficiaryContactLink);\r\n        beneficiary=Beneficiary(\"Cheif Minister's Relief Fund\",\"https://cdn.downtoearth.org.in/library/large/2018-08-23/0.42716000_1535013850_23.jpg\",\"https://donation.cmdrf.kerala.gov.in/\");\r\n        auctioner=Auctioner(\"Amitabh Bachchan\",\"Indian film actor, film director, film producer, music composer, television host and former politician.\",\"https://images.indianexpress.com/2018/03/amit759.jpg\");\r\n        auctionItem=Item(\"The iconic quiz show KBC, that has Ambitabh Bachchan as its host. This jacket was worn in season 5, during iconic millonaire winning round\",\"KBC Season 5 Jacket\",\"https://d23ipcd5miwp4q.cloudfront.net/wp-content/uploads/2017/06/Amitabh-Bachchan-KBC-002.jpg\");\r\n        \r\n    }\r\n\r\n    event highestBidSubmitted(uint _highestBid,address _highestBidder);\r\n\r\n    function bid() payable public{\r\n        if(highestBid<msg.value){\r\n            highestBid=msg.value;\r\n            highestBidder=msg.sender;\r\n            emit highestBidSubmitted(highestBid,highestBidder);\r\n        }\r\n    }\r\n\r\n}",
  "sourcePath": "D:\\auction-starter\\contracts\\Auction.sol",
  "compiler": {
    "name": "solc",
    "version": "0.4.24+commit.e67f0147.Emscripten.clang"
  },
  "schemaVersion": "2.0.1",
  "updatedAt": "2018-09-28T22:30:37.683Z"
}