{
  "contractName": "FundChain",
  "abi": [
    {
      "constant": true,
      "inputs": [
        {
          "name": "",
          "type": "uint256"
        }
      ],
      "name": "endUserSupplyChains",
      "outputs": [
        {
          "name": "userName",
          "type": "string"
        },
        {
          "name": "userImage",
          "type": "string"
        },
        {
          "name": "userAddress",
          "type": "string"
        },
        {
          "name": "fundsRecieved",
          "type": "uint256"
        }
      ],
      "payable": false,
      "stateMutability": "view",
      "type": "function"
    },
    {
      "constant": true,
      "inputs": [],
      "name": "distributorFundRecievedCount",
      "outputs": [
        {
          "name": "",
          "type": "uint256"
        }
      ],
      "payable": false,
      "stateMutability": "view",
      "type": "function"
    },
    {
      "constant": true,
      "inputs": [],
      "name": "distributor",
      "outputs": [
        {
          "name": "distributorName",
          "type": "string"
        },
        {
          "name": "distributorImage",
          "type": "string"
        },
        {
          "name": "distributorAddress",
          "type": "string"
        }
      ],
      "payable": false,
      "stateMutability": "view",
      "type": "function"
    },
    {
      "constant": true,
      "inputs": [],
      "name": "agentDonationCount",
      "outputs": [
        {
          "name": "",
          "type": "uint256"
        }
      ],
      "payable": false,
      "stateMutability": "view",
      "type": "function"
    },
    {
      "constant": true,
      "inputs": [],
      "name": "agent",
      "outputs": [
        {
          "name": "agentName",
          "type": "string"
        },
        {
          "name": "agentDescription",
          "type": "string"
        },
        {
          "name": "agentImage",
          "type": "string"
        },
        {
          "name": "agentAddress",
          "type": "string"
        }
      ],
      "payable": false,
      "stateMutability": "view",
      "type": "function"
    },
    {
      "inputs": [],
      "payable": false,
      "stateMutability": "nonpayable",
      "type": "constructor"
    },
    {
      "anonymous": false,
      "inputs": [
        {
          "indexed": false,
          "name": "agentDonationCount",
          "type": "uint256"
        }
      ],
      "name": "updateDonationCompleteUI",
      "type": "event"
    },
    {
      "constant": false,
      "inputs": [
        {
          "name": "_fund",
          "type": "uint256"
        }
      ],
      "name": "updateDistributorFund",
      "outputs": [],
      "payable": false,
      "stateMutability": "nonpayable",
      "type": "function"
    },
    {
      "constant": false,
      "inputs": [
        {
          "name": "_index",
          "type": "uint256"
        },
        {
          "name": "_recievedfund",
          "type": "uint256"
        }
      ],
      "name": "distributeFunds",
      "outputs": [],
      "payable": false,
      "stateMutability": "nonpayable",
      "type": "function"
    }
  ],
  "bytecode": "0x608060405260066008553480156200001657600080fd5b506080604051908101604052806040805190810160405280600d81526020017f4d656768616e736820476f656c0000000000000000000000000000000000000081525081526020016040805190810160405280601581526020017f576f726c642d52656e6f776e65642054656368696500000000000000000000008152508152602001608060405190810160405280605981526020017f68747470733a2f2f7170682e66732e71756f726163646e2e6e65742f6d61696e81526020017f2d7468756d622d37383937373232382d3230302d6f6574797173616d7178676481526020017f65787174616368616375736c756e7a656766796d2e6a706567000000000000008152508152602001606060405190810160405280602a81526020017f307845313144344531363630363942343734453135363746314138633231646281526020017f323662423942436437340000000000000000000000000000000000000000000081525081525060016000820151816000019080519060200190620001a192919062000c89565b506020820151816001019080519060200190620001c092919062000c89565b506040820151816002019080519060200190620001df92919062000c89565b506060820151816003019080519060200190620001fe92919062000c89565b509050506060604051908101604052806040805190810160405280600581526020017f556d6565640000000000000000000000000000000000000000000000000000008152508152602001608060405190810160405280605681526020017f687474703a2f2f63646e2e6d6f7267616e666f756e646174696f6e2e6f72672e81526020017f6e7a2f77702d636f6e74656e742f75706c6f6164732f323031372f30312f636c81526020017f696d6174652d686f70652d383436783737312e6a7067000000000000000000008152508152602001606060405190810160405280602a81526020017f307863333161363435393937613936313766393636363745614530353631413381526020017f3430624339356537423900000000000000000000000000000000000000000000815250815250600560008201518160000190805190602001906200035192919062000c89565b5060208201518160010190805190602001906200037092919062000c89565b5060408201518160020190805190602001906200038f92919062000c89565b509050506080604051908101604052806040805190810160405280600481526020017f466f6f6400000000000000000000000000000000000000000000000000000000815250815260200160a060405190810160405280606881526020017f68747470733a2f2f656e637279707465642d74626e302e677374617469632e6381526020017f6f6d2f696d616765733f713d74626e3a414e6439476353366266554d5a67413381526020017f6b4642725a536e563643737a2d7744346348455251547a57635944525041677681526020017f6b7075305a7054550000000000000000000000000000000000000000000000008152508152602001606060405190810160405280602a81526020017f307832383743466234396365426163373464643062323846613864453361344481526020017f30656343386433613763000000000000000000000000000000000000000000008152508152602001600081525060008080815260200190815260200160002060008201518160000190805190602001906200051f92919062000c89565b5060208201518160010190805190602001906200053e92919062000c89565b5060408201518160020190805190602001906200055d92919062000c89565b50606082015181600301559050506080604051908101604052806040805190810160405280600581526020017f57617465720000000000000000000000000000000000000000000000000000008152508152602001608060405190810160405280605581526020017f687474703a2f2f69636865662e626263692e636f2e756b2f777766656174757281526020017f65732f776d2f6c6976652f313238305f3634302f696d616765732f6c6976652f81526020017f70302f36352f62762f70303635627677382e6a706700000000000000000000008152508152602001606060405190810160405280602a81526020017f307833316639416165383433344262344130396439363938373143446435394181526020017f354231324539306435660000000000000000000000000000000000000000000081525081526020016000815250600080600181526020019081526020016000206000820151816000019080519060200190620006d292919062000c89565b506020820151816001019080519060200190620006f192919062000c89565b5060408201518160020190805190602001906200071092919062000c89565b50606082015181600301559050506080604051908101604052806040805190810160405280600a81526020017f53616e69746174696f6e00000000000000000000000000000000000000000000815250815260200160a060405190810160405280606881526020017f68747470733a2f2f656e637279707465642d74626e302e677374617469632e6381526020017f6f6d2f696d616765733f713d74626e3a414e64394763526b4559746b45567a3581526020017f4341594279576273666f572d54735337325131786e574c5f417865384f33797381526020017f59574770716e6f330000000000000000000000000000000000000000000000008152508152602001606060405190810160405280602a81526020017f307845363135383265666237446144316236383439343137336235303962333881526020017f463042456146324438320000000000000000000000000000000000000000000081525081526020016000815250600080600281526020019081526020016000206000820151816000019080519060200190620008ab92919062000c89565b506020820151816001019080519060200190620008ca92919062000c89565b506040820151816002019080519060200190620008e992919062000c89565b50606082015181600301559050506080604051908101604052806040805190810160405280600881526020017f4d65646963696e650000000000000000000000000000000000000000000000008152508152602001608060405190810160405280604b81526020017f68747470733a2f2f7777772e627476692e696e2f6d656469612f696d6167657381526020017f2f6e6577732f303532343963666662616665376264366262313363393438303781526020017f3831353538302e6a7065670000000000000000000000000000000000000000008152508152602001606060405190810160405280602a81526020017f307835364331304643383231323633333430663044664161443432424535363581526020017f46333465383546353337000000000000000000000000000000000000000000008152508152602001600081525060008060038152602001908152602001600020600082015181600001908051906020019062000a5e92919062000c89565b50602082015181600101908051906020019062000a7d92919062000c89565b50604082015181600201908051906020019062000a9c92919062000c89565b50606082015181600301559050506080604051908101604052806040805190810160405280600681526020017f4f74686572730000000000000000000000000000000000000000000000000000815250815260200160a060405190810160405280606881526020017f68747470733a2f2f656e637279707465642d74626e302e677374617469632e6381526020017f6f6d2f696d616765733f713d74626e3a414e64394763517150644544446a362d81526020017f5675376a42554a5f4f6f3033564b467a4d5a304353547966526c4938475f4a4a81526020017f2d7130763879675f0000000000000000000000000000000000000000000000008152508152602001606060405190810160405280602a81526020017f307832323863463664306235324638336430444435393162453338376466316281526020017f31366436634641326335000000000000000000000000000000000000000000008152508152602001600081525060008060048152602001908152602001600020600082015181600001908051906020019062000c3792919062000c89565b50602082015181600101908051906020019062000c5692919062000c89565b50604082015181600201908051906020019062000c7592919062000c89565b506060820151816003015590505062000d38565b828054600181600116156101000203166002900490600052602060002090601f016020900481019282601f1062000ccc57805160ff191683800117855562000cfd565b8280016001018555821562000cfd579182015b8281111562000cfc57825182559160200191906001019062000cdf565b5b50905062000d0c919062000d10565b5090565b62000d3591905b8082111562000d3157600081600090555060010162000d17565b5090565b90565b610d0a8062000d486000396000f300608060405260043610610083576000357c0100000000000000000000000000000000000000000000000000000000900463ffffffff16806318e0ea0d14610088578063482769f31461020d5780636b3f0e45146102445780637c1cb2661461026f578063bfe109281461029c578063c8d9bce614610404578063f5ff5c761461042f575b600080fd5b34801561009457600080fd5b506100b360048036038101908080359060200190929190505050610603565b60405180806020018060200180602001858152602001848103845288818151815260200191508051906020019080838360005b838110156101015780820151818401526020810190506100e6565b50505050905090810190601f16801561012e5780820380516001836020036101000a031916815260200191505b50848103835287818151815260200191508051906020019080838360005b8381101561016757808201518184015260208101905061014c565b50505050905090810190601f1680156101945780820380516001836020036101000a031916815260200191505b50848103825286818151815260200191508051906020019080838360005b838110156101cd5780820151818401526020810190506101b2565b50505050905090810190601f1680156101fa5780820380516001836020036101000a031916815260200191505b5097505050505050505060405180910390f35b34801561021957600080fd5b5061024260048036038101908080359060200190929190803590602001909291905050506107fb565b005b34801561025057600080fd5b50610259610822565b6040518082815260200191505060405180910390f35b34801561027b57600080fd5b5061029a60048036038101908080359060200190929190505050610828565b005b3480156102a857600080fd5b506102b161087a565b60405180806020018060200180602001848103845287818151815260200191508051906020019080838360005b838110156102f95780820151818401526020810190506102de565b50505050905090810190601f1680156103265780820380516001836020036101000a031916815260200191505b50848103835286818151815260200191508051906020019080838360005b8381101561035f578082015181840152602081019050610344565b50505050905090810190601f16801561038c5780820380516001836020036101000a031916815260200191505b50848103825285818151815260200191508051906020019080838360005b838110156103c55780820151818401526020810190506103aa565b50505050905090810190601f1680156103f25780820380516001836020036101000a031916815260200191505b50965050505050505060405180910390f35b34801561041057600080fd5b50610419610a5a565b6040518082815260200191505060405180910390f35b34801561043b57600080fd5b50610444610a60565b6040518080602001806020018060200180602001858103855289818151815260200191508051906020019080838360005b83811015610490578082015181840152602081019050610475565b50505050905090810190601f1680156104bd5780820380516001836020036101000a031916815260200191505b50858103845288818151815260200191508051906020019080838360005b838110156104f65780820151818401526020810190506104db565b50505050905090810190601f1680156105235780820380516001836020036101000a031916815260200191505b50858103835287818151815260200191508051906020019080838360005b8381101561055c578082015181840152602081019050610541565b50505050905090810190601f1680156105895780820380516001836020036101000a031916815260200191505b50858103825286818151815260200191508051906020019080838360005b838110156105c25780820151818401526020810190506105a7565b50505050905090810190601f1680156105ef5780820380516001836020036101000a031916815260200191505b509850505050505050505060405180910390f35b6000602052806000526040600020600091509050806000018054600181600116156101000203166002900480601f0160208091040260200160405190810160405280929190818152602001828054600181600116156101000203166002900480156106af5780601f10610684576101008083540402835291602001916106af565b820191906000526020600020905b81548152906001019060200180831161069257829003601f168201915b505050505090806001018054600181600116156101000203166002900480601f01602080910402602001604051908101604052809291908181526020018280546001816001161561010002031660029004801561074d5780601f106107225761010080835404028352916020019161074d565b820191906000526020600020905b81548152906001019060200180831161073057829003601f168201915b505050505090806002018054600181600116156101000203166002900480601f0160208091040260200160405190810160405280929190818152602001828054600181600116156101000203166002900480156107eb5780601f106107c0576101008083540402835291602001916107eb565b820191906000526020600020905b8154815290600101906020018083116107ce57829003601f168201915b5050505050908060030154905084565b80600080848152602001908152602001600020600301600082825401925050819055505050565b60095481565b80600a5401600a8190555080600954016009819055507fc984580d996792f0aeecccfad20a087a94d6d64c1867675ae29ca4d19c46ff81600a546040518082815260200191505060405180910390a150565b6005806000018054600181600116156101000203166002900480601f0160208091040260200160405190810160405280929190818152602001828054600181600116156101000203166002900480156109145780601f106108e957610100808354040283529160200191610914565b820191906000526020600020905b8154815290600101906020018083116108f757829003601f168201915b505050505090806001018054600181600116156101000203166002900480601f0160208091040260200160405190810160405280929190818152602001828054600181600116156101000203166002900480156109b25780601f10610987576101008083540402835291602001916109b2565b820191906000526020600020905b81548152906001019060200180831161099557829003601f168201915b505050505090806002018054600181600116156101000203166002900480601f016020809104026020016040519081016040528092919081815260200182805460018160011615610100020316600290048015610a505780601f10610a2557610100808354040283529160200191610a50565b820191906000526020600020905b815481529060010190602001808311610a3357829003601f168201915b5050505050905083565b600a5481565b6001806000018054600181600116156101000203166002900480601f016020809104026020016040519081016040528092919081815260200182805460018160011615610100020316600290048015610afa5780601f10610acf57610100808354040283529160200191610afa565b820191906000526020600020905b815481529060010190602001808311610add57829003601f168201915b505050505090806001018054600181600116156101000203166002900480601f016020809104026020016040519081016040528092919081815260200182805460018160011615610100020316600290048015610b985780601f10610b6d57610100808354040283529160200191610b98565b820191906000526020600020905b815481529060010190602001808311610b7b57829003601f168201915b505050505090806002018054600181600116156101000203166002900480601f016020809104026020016040519081016040528092919081815260200182805460018160011615610100020316600290048015610c365780601f10610c0b57610100808354040283529160200191610c36565b820191906000526020600020905b815481529060010190602001808311610c1957829003601f168201915b505050505090806003018054600181600116156101000203166002900480601f016020809104026020016040519081016040528092919081815260200182805460018160011615610100020316600290048015610cd45780601f10610ca957610100808354040283529160200191610cd4565b820191906000526020600020905b815481529060010190602001808311610cb757829003601f168201915b50505050509050845600a165627a7a723058204363694d9e24faeaa0a9f5691bfd96b0e0a904a6c7310b6e88e2f1d2d846c92f0029",
  "source": "pragma solidity ^0.4.2;\r\n\r\ncontract FundChain{\r\n\r\n    struct PhilantropyAgent{\r\n        string agentName;\r\n        string agentDescription;\r\n        string agentImage;\r\n        string agentAddress;\r\n    }\r\n\r\n    struct NonProfitDistributor{\r\n        //address beneficiary;\r\n        string distributorName;\r\n        string distributorImage;\r\n        string distributorAddress;\r\n    }\r\n\r\n    struct GrassrootLevelUser{\r\n\r\n        string userName;\r\n        string userImage;\r\n        string userAddress;\r\n        uint fundsRecieved;\r\n    }\r\n    \r\n    mapping(uint=>GrassrootLevelUser) public endUserSupplyChains;\r\n    PhilantropyAgent public agent;\r\n    NonProfitDistributor public distributor;\r\n    uint NO_OF_USERS=6;\r\n    uint public distributorFundRecievedCount ;\r\n    uint public agentDonationCount;\r\n\r\n\r\n    constructor() public {\r\n       \r\n        agent=PhilantropyAgent(\"Meghansh Goel\",\"World-Renowned Techie\",\"https://qph.fs.quoracdn.net/main-thumb-78977228-200-oetyqsamqxgdexqtachacuslunzegfym.jpeg\",\"0xE11D4E166069B474E1567F1A8c21db26bB9BCd74\");\r\n        distributor=NonProfitDistributor(\"Umeed\",\"http://cdn.morganfoundation.org.nz/wp-content/uploads/2017/01/climate-hope-846x771.jpg\",\"0xc31a645997a9617f96667EaE0561A340bC95e7B9\");\r\n        endUserSupplyChains[0]=GrassrootLevelUser(\"Food\",\"https://encrypted-tbn0.gstatic.com/images?q=tbn:ANd9GcS6bfUMZgA3kFBrZSnV6Csz-wD4cHERQTzWcYDRPAgvkpu0ZpTU\",\"0x287CFb49ceBac74dd0b28Fa8dE3a4D0ecC8d3a7c\",0);\r\n        endUserSupplyChains[1]=GrassrootLevelUser(\"Water\",\"http://ichef.bbci.co.uk/wwfeatures/wm/live/1280_640/images/live/p0/65/bv/p065bvw8.jpg\",\"0x31f9Aae8434Bb4A09d969871CDd59A5B12E90d5f\",0);\r\n        endUserSupplyChains[2]=GrassrootLevelUser(\"Sanitation\",\"https://encrypted-tbn0.gstatic.com/images?q=tbn:ANd9GcRkEYtkEVz5CAYByWbsfoW-TsS72Q1xnWL_Axe8O3ysYWGpqno3\",\"0xE61582efb7DaD1b68494173b509b38F0BEaF2D82\",0);\r\n        endUserSupplyChains[3]=GrassrootLevelUser(\"Medicine\",\"https://www.btvi.in/media/images/news/05249cffbafe7bd6bb13c94807815580.jpeg\",\"0x56C10FC821263340f0DfAaD42BE565F34e85F537\",0);\r\n        endUserSupplyChains[4]=GrassrootLevelUser(\"Others\",\"https://encrypted-tbn0.gstatic.com/images?q=tbn:ANd9GcQqPdEDDj6-Vu7jBUJ_Oo03VKFzMZ0CSTyfRlI8G_JJ-q0v8yg_\",\"0x228cF6d0b52F83d0DD591bE387df1b16d6cFA2c5\",0);\r\n    }\r\n\r\n    event updateDonationCompleteUI(uint agentDonationCount);\r\n\r\n    function updateDistributorFund(uint _fund) public{\r\n        agentDonationCount=agentDonationCount+_fund;\r\n        distributorFundRecievedCount=distributorFundRecievedCount+_fund;\r\n        emit updateDonationCompleteUI(agentDonationCount);\r\n    }\r\n    \r\n\r\n\r\n    function distributeFunds(uint _index,uint _recievedfund) public{\r\n        endUserSupplyChains[_index].fundsRecieved+=_recievedfund;\r\n           \r\n    }    \r\n\r\n}",
  "sourcePath": "D:\\auction-starter\\contracts\\FundChain.sol",
  "compiler": {
    "name": "solc",
    "version": "0.4.24+commit.e67f0147.Emscripten.clang"
  },
  "schemaVersion": "2.0.1",
  "updatedAt": "2018-09-28T22:30:37.683Z"
}